:0400000080311F2804
:100008007E14803120007F08F00001302100111C8F
:1000180000392000111C0039091C1A2861089700B2
:10002800600896001110220040308D0670082000EC
:10003800FF007E100900803121284B3084000030F9
:1000480085001730873178278031BB308400003035
:1000580085000F30873178277E10200080313428C2
:1000680087317E278031EA302100AC008430AD0032
:100078003D30AE00AD30AF00FA30B0003B30B100DB
:10008800E230B2006930B300BD30B4001F30B500B3
:100098004530B6003F30B7004830B8006130B9008D
:1000A8003E30BA000030A3000030A4000030A500A4
:1000B8000030A6000030A7000030A8000030200063
:1000C800E5000030E6000030E7000030E8000030CE
:1000D800E9000030EA000030EB000030EC000030AE
:1000E800ED0040302100A9001C30AA004530AB00CB
:1000F80000302000E2008030E3003E30E400AE3003
:100108002100A0001330A1004130A2000D132200ED
:100118000D13BF302000C000400823008D052100CA
:100128000C12EF302000C000400823008C05083076
:100138003D00940022008E1123008E1721008E1797
:1001480023000E1421000E1422000E1124000E1597
:1001580023000E15FB302000C000400821008E054A
:1001680014303D00A200873157278031873144275A
:10017800803187314E2780318731002780318731A0
:100188008F27803187318427803187312B27803131
:1001980087316027803104308631E7268031873106
:1001A8003827803105302000C2000F30C100F430FC
:1001B800C000C00BDD28C10BDD28C20BDD28613073
:1001C800F2008530F3008631A22680310A3087316B
:1001D800712780318B170B1704308631E726803161
:1001E80071082000C0007208C10004308631E7267B
:1001F8008031710820004007C2007208413DC300E9
:1002080004308631E7268031710820004207C40097
:100218007208433DC50004308631E72680317108F5
:1002280020004407DC007208453DDD000030B000C6
:100238008030B1004030B2002930A0009C30A100CD
:100248004030A2005D08FA005C08F90087311827E1
:10025800803179082000A3007A08A4007B08A50053
:1002680083318E23803120002008B3002108B40098
:100278002208B50084314224803120003008D7009C
:100288003108D8003208D900210029082000B00020
:1002980021002A082000B10021002B082000B2000C
:1002A8005708F1005808F2005908F3008731692708
:1002B800803171082000B3007208B4007308B500DB
:1002C80082319822803120003008D4003108D500CE
:1002D8003208D6006B08A0006C08A1006D08A200C7
:1002E800210038082000A300210039082000A400BC
:1002F80021003A082000A50083318E238031200098
:100308002008B0002108B1002208B2006808A00047
:100318006908A1006A08A200210035082000A3008E
:10032800210036082000A400210037082000A5007D
:1003380083318E23803120002008B3002108B400C7
:100348002208B50082319822803120003008C6008A
:100358003108C7003208C8005408B0005508B10079
:100368005608B2004608B3004708B4004808B5006C
:1003780082319822803120003008E5003108E600FB
:100388003208E70021002F082000A00021003008D3
:100398002000A100210031082000A2006808A30065
:1003A8006908A4006A08A50083318E2380312000E3
:1003B8002008B0002108B1002208B2006508A0009A
:1003C8006608A1006708A20021002C082000A300ED
:1003D80021002D082000A40021002E082000A500DF
:1003E80083318E23803120002008B3002108B40017
:1003F8002208B50082319822803120003008C600DA
:100408003108C7003208C800210032082000A000C7
:10041800210033082000A100210034082000A20098
:100428006B08A3006C08A4006D08A50083318E2317
:10043800803120002008B0002108B1002208B20055
:100448004608B3004708B4004808B500823198222E
:10045800803120003008D1003108D2003208D300A2
:100468005108F1005208F2005308F3000030F4007C
:100478000030F5000030F600863167268031031819
:100488004C2A00302000D1000030D2000030D300C8
:1004980020006208A0006308A1006408A2005108B7
:1004A800A3005208A4005308A50083318E2380318D
:1004B80020002008CE002108CF002208D0004E08D6
:1004C800FA004F08FB005008FC008631C72680312F
:1004D8007A082000A0007B08A1007C08A2008531D2
:1004E8007C25803120002108CA002008C90001307D
:1004F8004A02003003194902031C862AFF30C9004A
:100508000030CA00490887318A27803120006808EE
:10051800EB006908EC006A08ED006508E800660869
:10052800E9006708EA00F02820003008B600310822
:10053800B7003208B8000310370D380DB900390874
:10054800BC003308B6003408B7003508B8000310FB
:10055800370D380DB9003908BB003C080319C02A0B
:100568003B083C020318C72A3C03FF3A3B07B60086
:1005780019303602031CC72A3308B0003408B1000A
:100588003508B20008003B08031908003C083B0284
:100598000318D62A3B03FF3A3C07B6001930360247
:1005A800031808000630B6003608BA00B21BBA179E
:1005B800B51B3A17B117FF30B005FF30B105003051
:1005C800B205B417FF30B305FF30B4050030B505E8
:1005D8003B083C020318122B0130B335B40DB50D9E
:1005E800890BF12A0130BB023B083C0603190D2B8D
:1005F8000130BA023A08073903190D2BF02A0130E5
:10060800B236B10CB00C890B042B0130B600360899
:10061800BC073C083B060319372B032B3C083B025D
:100628000318372B0130B035B10DB20D890B172BDC
:100638000130BC023B083C060319332B0130BA02D7
:100648003A0807390319332B162B0130B536B40C89
:10065800B30C890B2A2B0130B6003608BB073C08BF
:100668003B06031D292BBA1F492BFF30B006FF306C
:10067800B106FF30B2060130B00700300318013070
:10068800B107003003180130B2073A1F5B2BFF3067
:10069800B306FF30B406FF30B5060130B3070030AB
:1006A80003180130B407003003180130B507BA0148
:1006B8003008B3073108B43D3208B53DB51F762B75
:1006C800FF30B306FF30B406FF30B5060130B3077C
:1006D800003003180130B407003003180130B507A3
:1006E800BA01BA0A3308F1003408F2003508F300F9
:1006F8003C08B6003608F4003A08B7003708F50099
:100708008631032671082000B0007208B100730812
:10071800B200080020002008A6002108A70022082F
:10072800A8000310270D280DA9002908AA002A08E7
:10073800031DA52B0030A0000030A1000030A2004E
:1007480008002308A6002408A7002508A80003100D
:10075800270D280DA9002908AF002F08031DBB2B62
:100768000030A0000030A1000030A20008002F08CF
:100778007B3EA6002608AA072008A6002108A70095
:100788002208A8001030A836A70CA60C890BC72B86
:100798002608A9002908AF002308A6002408A700F6
:1007A8002508A8001030A836A70CA60C890BD72B53
:1007B8002608A9002908AF068030A6002608AF053C
:1007C800A117A417FF30A305FF30A4050030A50525
:1007D8000030AB000030AC000030AD000730A600A0
:1007E8002608AE00201CFE2B2308AB072408AC3DCE
:1007F8002508AD3D0130A236A10CA00C890BFF2BBA
:100808000130A335A40DA50D890B052C0130AE02CE
:10081800031DF62B0930A6002608AE00201C1A2C52
:100828002308AB072408AC3D2508AD3D0130A236AE
:10083800A10CA00C890B1B2C0130AD36AC0CAB0CF9
:10084800890B212C0130AE02031D122C2B08F1005C
:100858002C08F2002D08F3002A08A6002608F40048
:100868002F08A7002708F500863103267108200005
:10087800A0007208A1007308A20008002000330835
:10088800B6003408B7003508B8000310370D380D26
:10089800B9003908BE003E08031D592C0030B000CD
:1008A8000030B1000030B20008003008B60031084E
:1008B800B7003208B8000310370D380DB9003908F1
:1008C800BF003F08031D6F2C0030B0000030B1009E
:1008D8000030B20008000030BB000030BC0000301F
:1008E800BD0089303F07B6003608BE023308B6009F
:1008F8003408B7003508B8001030B836B70CB60C55
:10090800890B812C3608B9003908BF003008B600B9
:100918003108B7003208B8001030B836B70CB60C3A
:10092800890B912C3608B9003908BF068030B6000B
:100938003608BF05B417FF30B305FF30B4050030E3
:10094800B505B117FF30B005FF30B1050030B2056D
:100958001830B6003608BA000130BB35BC0DBD0DE5
:10096800890BB12C32083502031DC02C3108340222
:10097800031DC02C30083302031CC92C3008B302F5
:100988003108B43B3208B53B3B140130B335B40DE4
:10099800B50D890BCA2C0130BA02031DB02C3B08D7
:1009A800F1003C08F2003D08F3003E08B6003608A6
:1009B800F4003F08B7003708F500863103267108B0
:1009C8002000B0007208B1007308B20008000134BA
:1009D8000034003400340A34003400340034643401
:1009E800003400340034E834033400340034103464
:1009F800273400340034A0348634013400344034C1
:100A080042340F340034803496349834003400343F
:100A1800E134F53405340034CA349A343B340034B4
:100A280080343F34CD34CC343D34D73423343C3453
:100A3800123483343A34B734D1343834C634273492
:100A48003734383486343534C034D6343334CC343F
:100A58002B343234703489343034E734DB342E3478
:100A6800E5343C341E344234A2340D34003480342E
:100A78003F340034203441340034C8344234003424
:100A88007A34443440341C3446345034C334473404
:100A9800243474344934973418344B34BC34BE3459
:100AA8004C346B346E344E3403341534503479344A
:100AB800AD346034F3344934713442346F346F34B4
:100AC80073347434203449346E346934743469347A
:100AD80061346C3469347A3469346E3467342E3452
:100AE8002E342E342E342E3400342534663400341B
:100AF80020002008A4002108A5002208A600031051
:100B0800250D260DA7002708AD002D08031D952DDE
:100B18000030A3000030A2000030A1000030A00087
:100B280008002008A4002108A5002208A600173004
:100B3800A636A50CA40C890B9C2D2408A700270811
:100B4800A800A117FF30A005FF30A1050030A205BD
:100B58002008A9002108AA002208AB00AC018E30A9
:100B6800AD02AD1FD32D2D08803A8F3E0318C52D39
:100B78000030A3000030A2000030A1000030A00027
:100B880008000130AC36AB0CAA0CA90C890BC62D99
:100B98000130A4002408AD070319EC2DC52D183029
:100BA8002D02031CE92D0030A3000030A200003004
:100BB800A1000030A00008000130A935AA0DAB0D36
:100BC800AC0D890BE12D0130AD022D08031DE02D80
:100BD80028080319FA2DA909AA09AB09AC09A90A19
:100BE8000319AA0A0319AB0A0319AC0A2C08A300B3
:100BF8002B08A2002A08A1002908A00008007408F0
:100C080003190B2E730872047104031D1C2E003087
:100C1800F1000030F2000030F30008000130F60067
:100C28007608F4070130F336F20CF10C890B172E15
:100C3800FE3073050319352E122E0130F6007608A2
:100C4800F4070130F107003003180130F2070030D3
:100C580003180130F3070130F336F20CF10C890B5D
:100C6800302EFF3073050319422E212E0130F40275
:100C78000130F135F20DF30D890B3D2EF21B482E94
:100C88000230740203183A2E7418502EFF30F10502
:100C98007F30F205FF30F3050310F40C7408F600FA
:100CA800F701F8011030F635F70DF80D890B572EBE
:100CB8007608F1047708F2047808F3047508031934
:100CC8000800F3170800F31F7D2E7109F700720959
:100CD800F8007309F900F70A0319F80A0319F90A61
:100CE80000307707F1000030783DF2008030793D20
:100CF800F300F61F932E7409F7007509F8007609BA
:100D0800F900F70A0319F80A0319F90A00307707F6
:100D1800F4000030783DF5008030793DF6008030F1
:100D2800F3068030F60676087302031D080075087E
:100D38007202031D0800740871020800F501F6012B
:100D48007208750784007308763D85001200031940
:100D580008007608803AF40080307402031DB62E2D
:100D68006430750203180800720875078400730858
:100D7800763D850000088731712786310130F507F7
:100D88000030F63DA42E7A08F1007B08F2007C08BA
:100D9800F3000030F4000030F5000030F600863132
:100DA80067268631031808007A08F1007B08F200EC
:100DB8007C08F300873169277108FA007208FB0084
:100DC8007308FC000800F4007408F300F30DF30D39
:100DD80021001D087306833973069D001D140D300C
:100DE800F300F30BF52E21009D149D18F92E1C0815
:100DF800F2001B08F10008002D009701980110303F
:100E080099009A0122309B0022309C009D019E018E
:100E180001309F00950196010A30930094019101D9
:100E280092018030970008007908F1007A08F200F2
:100E3800F3018E30FC007C08F400F50186310326AE
:100E48007108F9007208FA007308FB000800843082
:100E5800220091002B30920021008C1223008C1666
:100E680016303D0095000800083023009F008030B0
:100E78009D0024309E0040309B0003309C000800F9
:100E88003C3025009A006F3098007F309900F3308D
:100E98009E05080020009C019F309B009A0191103C
:100EA8008731932708001C302500930001309100FA
:100EB8009201FC309E050800013021009D00C030E1
:100EC8009E009F019B019C01080073087204710435
:100ED800031908008030F3060800F10023009E1C67
:100EE800722F71089A000800640080010131890B93
:100EF800792F0034F030210099009A0198010800F8
:100F0800983022009800193099000800F100710803
:100F18002200990008008430220097000800200071
:040F28001C1508008C
:020000040001F9
:04000E00A4FFFFFE4E
:00000001FF
