:0400000080311F2804
:100008007E14803120007F08F00001302100111C8F
:1000180000392000111C0039091C1A287A08970099
:10002800790896001110220040308D0670082000D3
:10003800FF007E10090080312128F701F801F9013D
:10004800FA014A30840000308500223082310322D0
:100058007E10200080313028823109228031EA3038
:100068002000AF008430B0003D30B100AD30B200A8
:10007800FA30B3003B30B400E230B5006930B60066
:10008800BD30B7001F30B8004530B9003F30BA0066
:100098004830BB006130BC003E30BD000030A600D7
:1000A8000030A7000030A8000030A9000030AA00E6
:1000B8000030AB000030BE000030BF000030C00090
:1000C8000030C1000030C2000030C3000030C4005E
:1000D8000030C5000030C6000030C7000030C8003E
:1000E8000030C9004030AC001C30AD004530AE00D7
:1000F8000030A3008030A4003E30A500AE30A00040
:100108001330A1004130A20021000D1322000D136D
:10011800BF302000EC006C0823008D0521000C1274
:10012800EF302000EC006C0823008C0508303D00FF
:10013800940022008E1123008E1721008E172200B2
:100148000C1023000E140E088C0021000E1422003F
:100158000E1124000E1523000E15FB302000EC00B4
:100168006C0821008E0514303D00A2008131EA217F
:1001780080318131D72180318131E1218031813154
:10018800A621803182311522803182310F228031BF
:100198008131BE2180318131F32180318131CB2100
:1001A800803105302000EE000F30ED00F430EC0017
:1001B800EC0BDC28ED0BDC28EE0BDC286630F200BB
:1001C8008130F3008131812180310A308131FC2175
:1001D80080318B170B17EF280134003400340034BA
:1001E8000A340034003400346434003400340034F9
:1001F800E834033400340034103427340034003435
:10020800A034863401340034403442340F3400348E
:1002180080349634983400340034E134F5340534AD
:100228000034CA349A343B34003480343F34CD34FB
:10023800CC343D34D73423343C34123483343A3408
:10024800B734D1343834C634273437343834863464
:100258003534C034D6343334CC342B34323470345F
:1002680089343034E734DB342E34E5343C341E34FE
:100278004234A2340D34003480343F340034203406
:1002880041340034C834423400347A34443440347D
:100298001C3446345034C334473424347434493419
:1002A800973418344B34BC34BE344C346B346E340D
:1002B8004E340334153450347934AD346034F33467
:1002C8004934713442346F346F34733474342034A5
:1002D80049346E3469347434693461346C34693443
:1002E8007A3469346E3467342E342E342E342E34F6
:1002F8002E340034253466340034F501F6017208D2
:10030800750784007308763D8500120003190800FC
:100318007608803AF40080307402031D9529643011
:100328007502031808007208750784007308763D83
:10033800850000088131FC2181310130F50700304A
:10034800F63D83292D0097019801103099009A01F4
:1003580022309B0022309C009D019E0101309F00AD
:100368009501960102309300940191019201803029
:100378009700080084302200910003309200210089
:100388008C1223008C1616303D00950008000830AA
:1003980023009F0080309D0024309E0040309B0049
:1003A80003309C0008001C3025009A006630980035
:1003B8007F309900F3309E05080020009C01FF3033
:1003C8009B009A0191108231192208001C302500E7
:1003D8009300023091009201FC309E050800013024
:1003E80021009D00C0309E009F019B019C010800D8
:1003F800F10023009E1CFD2971089A000800640082
:1004080080010131890B042A0034F0302100990061
:100418009A01980108009830220098000D30990040
:100428000800843022009700080020001C150800EE
:020000040001F9
:04000E00A4FFFFFE4E
:00000001FF
