:040000008031232800
:100008007E14803120007F08F00001302100111C8F
:1000180000392000111C0039091C1E2821005F0826
:100028002000970021005E08200096001110220091
:1000380040308D0670082000FF007E1009008031D6
:100048002528C930840000308500173095311125E6
:10005800803138308400013085000F30953111250A
:100068007E10200084318A2C2100B2005D302000EF
:10007800E00060082100A30020005C08E1005B08A4
:10008800E000DB0A0319DC0A6008840061088500C7
:100098000008E20062082100B60036080319852C22
:1000A8002530360603195B2836082000772CA40172
:1000B800A50160282515762820005C08E1005B086A
:1000C800E000DB0A0319DC0A600884006108850087
:1000D80000082100B600003A0319852C663A031976
:1000E8005E284028003024052000E0000730210069
:1000F80025052000E100600861040319682C06301A
:100108002100A6000030A700230886008701403F91
:10011800B300413FB400423FB50003302000E00087
:1001280060082100A3073308F1003408F2003508FD
:10013800F3000030F4000030F5000030F60096318E
:10014800352680310318BD2821003308F100340812
:10015800F2003508F3008831002080317108210051
:10016800B3007208B4007308B5000330A40400306B
:10017800A5042100AC01AD0135083404330403198A
:100188007D29B33086008701403F2000E000413FD1
:10019800E100423FE200433FE3000F30E336E20C68
:1001A800E10CE00C890BD228FF306005E400003038
:1001B8006105E5006408823E2100AC00FF302000A4
:1001C800653D2100AD00FF30AC07FF30AD3D033089
:1001D8002000A4000030A50021002D082000A70061
:1001E80021002C082000A60095319225803120009E
:1001F80025082100AD00200024082100AC000A30A9
:10020800F8000030F9002D08FB002C08FA009631A0
:10021800F726803179082100AD007808AC00AD1FC1
:100228001929FF30AC07FF30AD3D2C03FF3A8D3163
:10023800BC25803120003A082100AE0020003B0890
:100248002100AF0020003C082100B0003308200046
:10025800AA00210034082000AB0021003508200046
:10026800AC0021002E082000AD0021002F0820003E
:10027800AE00210030082000AF008831DA2080313C
:1002880020002A082100AE0020002B082100AF0022
:1002980020002C082100B0002E08F1002F08F200E1
:1002A8003008F3000030F4008030F5003F30F600ED
:1002B80096313526803103186629FF302100AC07B6
:1002C800FF307C2921002E08F1002F08F2003008A9
:1002D800F3000030F4002030F5004130F60096318C
:1002E80035268031031C7D2901302100AC07003000
:1002F800AD3D21002708803A2000E00080306002F0
:10030800031D89290D30210026020318B229210076
:1003180026088C315724803120003A08C8003B0851
:10032800C9003C08CA00210033082000CB00210086
:1003380034082000CC00210035082000CD008A3187
:1003480044228031200048082100B30020004908D9
:100358002100B40020004A082100B50021002D0822
:10036800803A2000E00080306002031DBE290A3078
:1003780021002C020318E92921003508340433042C
:100388000319312A33082000C30021003408200053
:10039800C400210035082000C50087316827803156
:1003A80020004608450444044304031D312A210063
:1003B8002D08803A2000E00080306002031DE72904
:1003C800023021002C02031C312A21002E08F100E2
:1003D8002F08F2003008F3007030F4008930F5007F
:1003E8004030F6009631352680310318FD29F73064
:1003F800FE29F8302100AC07FF30AD3D2C088D31C7
:10040800BC25803120003A082100AE0020003B08BE
:100418002100AF0020003C082100B0003308F100A3
:100428003408F2003508F3002E08F4002F08F50010
:100438003008F60089318E21803174082100AB0024
:100448007308AA007208A9007108A8000030B30058
:100458000030B4000030B5007F2A210033082000A6
:10046800C300210034082000C40021003508200002
:10047800C500873168278031200046082100AB007D
:10048800200045082100AA00200044082100A900F6
:10049800200043082100A8002B08FC002A08FB00C4
:1004A8002908FA002808F9008831082080317908DD
:1004B8002000D5007A08D6007B08D7002100330831
:1004C8002000D800210034082000D9002100350878
:1004D8002000DA009531AE25803120005508210032
:1004E800B300200056082100B4002000570821005E
:1004F800B500AC01AD01B601B60A0A3036060319DB
:10050800BC2A36082000E000E101E035E10DE035C5
:10051800E10D0030600784009030613D8500003FA8
:10052800E200013FE300023FE400033FE500650805
:1005380021002B02031DB02A2000640821002A0292
:10054800031DB02A2000630821002902031DB02AD8
:100558002000620821002802031CBC2A0130200068
:10056800E00060082100B6070A303606031D852A18
:10057800033024052000E00000302100250520007C
:10058800E100600861040319D72A2D30E00021003A
:100598003208860087012000600881000130E000F1
:1005A80060082100B207FF302000E0006008210049
:1005B800B607360A03193E2B36082000E000E10191
:1005C800E035E10DE035E10D003060078400903042
:1005D800613D8500003FF100013FF200023FF3005A
:1005E800033FF40021002B08F8002A08F700290827
:1005F800F6002808F5009731492780317408210052
:10060800B1007308B0007208AF007108AE00003086
:10061800F4000030F3000030F2000A30F100310835
:10062800F8003008F7002F08F6002E08F50096317C
:100638007026803174082100B1007308B000720878
:10064800AF007108AE002E08303E2000CA2A3030B4
:100658002000E000210032088600870120006008A1
:1006680081000130E00060082100B207FF30AC07CC
:10067800FF30AD3D2D08803A2000E0008030600258
:10068800031D492B013021002C0203182B2B2100BC
:100698002708803A2000E00080306002031D572BB5
:1006A800093021002602031C5B2B08305D2B21003A
:1006B80026082000E00060082100B6003608200067
:1006C800E000E101E01BE10360082100A602200030
:1006D80061082100A73B36080319812B2E30200022
:1006E800E0002100320886008701200060088100B0
:1006F8000130E00060082100B20736088D31BC25C2
:10070800803120003A082100A00020003B08210089
:10071800A10020003C082100A20020082000AD0014
:10072800210021082000AE00210022082000AF008F
:10073800210033082000AA00210034082000AB0063
:10074800210035082000AC008831DA2080312000F3
:100758002A08C3002B08C4002C08C5008731682765
:100768008031200046082100AB0020004508210008
:10077800AA00200044082100A90020004308210005
:10078800A800FF302000E00060082100B607360A04
:100798000319632C36082000E000E101E035E10D83
:1007A800E035E10D0030600784009030613D850040
:1007B800003FF100013FF200023FF300033FF40065
:1007C80021002B08F8002A08F7002908F600280855
:1007D800F50097314927803174082100B10073086A
:1007E800B0007208AF007108AE000030F4000030AD
:1007F800F3000030F2000A30F1003108F800300848
:10080800F7002F08F6002E08F50096317026803183
:1008180074082100B1007308B0007208AF007108B5
:10082800AE002E08303E2000E0002100320886008D
:1008380087012000600881000130E0006008210085
:10084800B20736082000E000E101E035E10DE035AF
:10085800E10D0030600784009030613D8500003F65
:10086800F100013FF200023FF300033FF4002100D2
:100878002B08F8002A08F7002908F6002808F500D0
:1008880096317026803174082100AB007308AA00E5
:100898007208A9007108C42B30302000E000210044
:1008A8003208860087012000600881000130E000DE
:1008B80060082100B207FF30A607FF30A73D2608D1
:1008C800270403194028502C033021002405200058
:1008D800E0000030210025052000E10060086104E7
:1008E800031940282D30E0002100320886008701D6
:1008F8002000600881000130E00060082100B20794
:1009080040283208860087018101080095310B25AF
:100918008431EA302100E3008430E4003D30E50012
:10092800AD302200AC00FA30AD003B30AE00E23012
:10093800AF006930B000BD30B1001F30B2004530A3
:10094800B3003F30B4004830B5006130B6003E30E7
:10095800B7000030A3000030A4000030A50000302C
:10096800A6000030A7000030A80000302100E600F3
:100978000030E7000030E8000030E9000030EA000D
:100988000030EB000030EC000030ED000030EE00ED
:1009980000302200A9002030AA004030AB004030CF
:1009A8002100E0009C30E1004130E200AE3022003E
:1009B800A0001330A1004130A20021000D13220035
:1009C8000D13BF302000EA006A0823008D052100BE
:1009D8000C12EF302000EA006A0823008C0508306A
:1009E8003D00940022008E1123008E1721008E17DF
:1009F80023000E1421000E1422000E1124000E15DF
:100A080023000E15FB302000EA006A0821008E053D
:100A180014303D00A20095312725843195313925C0
:100A28008431953130258431953162258431953171
:100A3800052584318731EF27843195311E2584318E
:100A48000430953179258431953143258431053039
:100A58002000EC000F30EB00F430EA00EA0B322DF6
:100A6800EB0B322DEC0B322D7630F2009030F30088
:100A78009631102684310A309531172584318B1729
:100A88000B17043095317925843171082000EA006C
:100A98007208EB0004309531792584317108200003
:100AA8006A07EC0072086B3DED000430953179253A
:100AB8008431710820006C07EE0072086D3DEF006C
:100AC8000430953179258431710820006E072100A2
:100AD800DA00720820006F3D2100DB0000302000A2
:100AE800BA007A30BB004530BC002930AA009C30DF
:100AF800AB004030AC0021005B08FA005A08F9004E
:100B080095314F25843179082000AD007A08AE0070
:100B18007B08AF008831DA20843120002A08BD0024
:100B28002B08BE002C08BF008831312084312000FA
:100B38003A082100D50020003B082100D6002000FB
:100B48003C082100D700220029082000C800220004
:100B58002A082000C90022002B082000CA00210012
:100B68005508F1005608F2005708F30088310020B4
:100B7800843171082000CB007208CC007308CD00C6
:100B88008A3144228431200048082100D200200004
:100B980049082100D30020004A082100D4006C082D
:100BA8002000AA0021006D082000AB0021006E087B
:100BB8002000AC00220035082000AD0022003608D5
:100BC8002000AE00220037082000AF008831DA206C
:100BD800843120002A08C8002B08C9002C08CA0044
:100BE800210069082000AA0021006A082000AB0043
:100BF80021006B082000AC00220032082000AD0064
:100C0800220033082000AE00220034082000AF0084
:100C18008831DA20843120002A08CB002B08CC0048
:100C28002C08CD008A314422843120004808210054
:100C3800C600200049082100C70020004A082100FA
:100C4800C80052082000C800210053082000C9002D
:100C5800210054082000CA00210046082000CB00CB
:100C6800210047082000CC00210048082000CD00C2
:100C78008A3144228431200048082100E6002000FF
:100C880049082100E70020004A082100E800220066
:100C98002C082000AA0022002D082000AB0022000A
:100CA8002E082000AC00210069082000AD002100BA
:100CB8006A082000AE0021006B082000AF008831D0
:100CC800DA20843120002A08C8002B08C9002C0823
:100CD800CA00210066082000AA0021006708200039
:100CE800AB00210068082000AC0021006308200048
:100CF800AD00210064082000AE0021006508200036
:100D0800AF008831DA20843120002A08CB002B0874
:100D1800CC002C08CD008A314422843120004808B8
:100D28002100C600200049082100C70020004A0809
:100D38002100C80022002F082000AA002200300845
:100D48002000AB00220031082000AC0021006C0814
:100D58002000AD0021006D082000AE0021006E08C3
:100D68002000AF008831DA20843120002A08C8002A
:100D78002B08C9002C08CA00210046082000CB0017
:100D8800210047082000CC00210048082000CD00A1
:100D98008A3144228431200048082100CF002000F5
:100DA80049082100D00020004A082100D10060082D
:100DB8002000AA00210061082000AB002100620881
:100DC8002000AC0021004F082000AD002100500891
:100DD8002000AE00210051082000AF008831DA2041
:100DE800843120002A082100CC0020002B08210093
:100DF800CD0020002C082100CE004C08FA004D0838
:100E0800FB004E08FC009531CC2584317A0820007F
:100E1800C3007B08C4007C08C5008731682784317B
:100E28002000430895310025843121006908EC0031
:100E38006A08ED006B08EE006608E9006708EA003A
:100E48006808EB009530F2009030F30096311026D8
:100E58008431210052082000E600210053082000B8
:100E6800E700210054082000E8009531EC25843182
:100E78008E30F2009030F3009631102684319C3089
:100E8800F2009030F30096311026843121004F088B
:100E98002000E600210050082000E700210051084A
:100EA8002000E8009531EC2584310A30953117256A
:100EB800843168302000EB00E430EA00EA0B622F4E
:100EC800EB0B622F0000452D20004308C7004408A3
:100ED800C8004508C9000310480D490DCA004A0852
:100EE800D0005008031D812F0030C6000030C50017
:100EF8000030C4000030C30008004308C70044089D
:100F0800C8004508C9001730C936C80CC70C890B7A
:100F1800882F4708CA004A08CB00C417FF30C3050A
:100F2800FF30C4050030C5054308CC004408CD0097
:100F38004508CE00CF018E30D002D01FBF2F5008F9
:100F4800803A8F3E0318B12F0030C6000030C5002C
:100F58000030C4000030C30008000130CF36CE0C8A
:100F6800CD0CCC0C890BB22F0130C7004708D00735
:100F78000319D82FB12F18305002031CD52F003079
:100F8800C6000030C5000030C4000030C3000800AF
:100F98000130CC35CD0DCE0DCF0D890BCD2F0130C5
:100FA800D0025008031DCC2F4B080319E62FCC099B
:100FB800CD09CE09CF09CC0A0319CD0A0319CE0AE7
:100FC8000319CF0A4F08C6004E08C5004D08C400D3
:100FD8004C08C30008008430220091002B30920096
:100FE80021008C1223008C1616303D009500080055
:060FF80020001C1508009A
:10100000730872047104031908008030F3060800A5
:101010008E302000A0002008A100FF307C050319BD
:101020001D280130FC36FB0CFA0CF90C890B122838
:101030000130A0002008A1070D287908F1007A08E6
:10104000F2007B08F3002108A0002008F400F5015D
:1010500097319C277108F9007208FA007308FB00A9
:10106000080020003D08C0003E08C1003F08C20043
:101070000310410D420DC3004308C8004808031D7A
:1010800048280030BA000030BB000030BC00080027
:101090003A08C0003B08C1003C08C2000310410DE3
:1010A000420DC3004308C9004908031D5E280030F3
:1010B000BA000030BB000030BC0008000030C500A2
:1010C0000030C6000030C70089304907C000400822
:1010D000C8023D08C0003E08C1003F08C2001030F1
:1010E000C236C10CC00C890B70284008C3004308ED
:1010F000C9003A08C0003B08C1003C08C2001030DB
:10110000C236C10CC00C890B80284008C3004308BC
:10111000C9068030C0004008C905BE17FF30BD05B4
:10112000FF30BE050030BF05BB17FF30BA05FF30EA
:10113000BB050030BC051830C0004008C4000130B9
:10114000C535C60DC70D890BA0283C083F02031DFD
:10115000AF283B083E02031DAF283A083D02031C9E
:10116000B8283A08BD023B08BE3B3C08BF3B4514CB
:101170000130BD35BE0DBF0D890BB9280130C40249
:10118000031D9F284508F1004608F2004708F300B8
:101190004808C0004008F4004908C1004108F500B3
:1011A00097319C2771082000BA007208BB007308B1
:1011B000BC00080020002A08B0002B08B1002C0851
:1011C000B2000310310D320DB3003308B4003408FF
:1011D000031DF1280030AA000030AB000030AC0045
:1011E00008002D08B0002E08B1002F08B20003102F
:1011F000310D320DB3003308B9003908031D07293A
:101200000030AA000030AB000030AC000800390804
:101210007B3EB0003008B4072A08B0002B08B100AC
:101220002C08B2001030B236B10CB00C890B132967
:101230003008B3003308B9002D08B0002E08B10003
:101240002F08B2001030B236B10CB00C890B232934
:101250003008B3003308B9068030B0003008B90553
:10126000AB17AE17FF30AD05FF30AE050030AF0550
:101270000030B5000030B6000030B7000730B000D5
:101280003008B8002A1C4A292D08B5072E08B63D9B
:101290002F08B73D0130AC36AB0CAA0C890B4B299B
:1012A0000130AD35AE0DAF0D890B51290130B802BB
:1012B000031D42290930B0003008B8002A1C6629F5
:1012C0002D08B5072E08B63D2F08B73D0130AC36C6
:1012D000AB0CAA0C890B67290130B736B60CB50CDC
:1012E000890B6D290130B802031D5E293508F10014
:1012F0003608F2003708F3003408B0003008F40074
:101300003908B1003108F50097319C277108200099
:10131000AA007208AB007308AC0008007108F7005F
:101320007208F8007308F9000310780D790DFA00BF
:101330007A082000A5002508031DA7290030F40025
:101340000030F3000030F2000030F10008007408B3
:10135000F7007508F8007608F9000310780D790D8C
:10136000FA007A08A4002408031DBF290030F40005
:101370000030F3000030F2000030F1000800F217F6
:10138000FF30F105FF30F2050030F305F517FF30AF
:10139000F405FF30F5050030F6050030A3000030FD
:1013A000A2000030A1000030A0007F30A5029830DC
:1013B0002407F7007708A5021830F7007708A40083
:1013C0000130A035A10DA20DA30D890BE1297608EE
:1013D0007302031DF12975087202031DF1297408B7
:1013E0007102031CFA297408F1027508F23B7608B1
:1013F000F33B20140130F135F20DF30D890BFB297D
:101400000130A402031DE029A51F222A2508803AE5
:10141000973E0318142A0030F4000030F300003027
:10142000F2000030F10008000130A336A20CA10C3C
:10143000A00C890B152A0130F7007708A5070319BE
:101440003B2A142A18302502031C382A0030F400E5
:101450000030F3000030F2000030F10008000130ED
:10146000A035A10DA20DA30D890B302A0130A502D4
:101470002508031D2F2A2308F4002208F300210861
:10148000F2002008F100080020004808CE004908BA
:10149000CF004A08D00003104F0D500DD100510865
:1014A000D4004B08CE004C08CF004D08D0000310EC
:1014B0004F0D500DD1005108D300540803196C2A68
:1014C000530854020318732A5403FF3A5307CE00FB
:1014D00019304E02031C732A4B08C8004C08C9007F
:1014E0004D08CA00080053080319080054085302A5
:1014F0000318822A5303FF3A5407CE0019304E02D4
:10150000031808000630CE004E08D200CA1BD217BE
:10151000CD1B5217C917FF30C805FF30C905003071
:10152000CA05CC17FF30CB05FF30CC050030CD0508
:10153000530854020318BE2A0130CB35CC0DCD0D13
:10154000890B9D2A0130D302530854060319B92A86
:101550000130D202520807390319B92A9C2A0130F6
:10156000CA36C90CC80C890BB02A0130CE004E080F
:10157000D407540853060319E32AAF2A5408530228
:101580000318E32A0130C835C90DCA0D890BC32AD7
:101590000130D402530854060319DF2A0130D20265
:1015A000520807390319DF2AC22A0130CD36CC0C84
:1015B000CB0C890BD62A0130CE004E08D307540835
:1015C0005306031DD52AD21FF52AFF30C806FF3067
:1015D000C906FF30CA060130C807003003180130C1
:1015E000C907003003180130CA07521F072BFF300C
:1015F000CB06FF30CC06FF30CD060130CB070030E4
:1016000003180130CC07003003180130CD07D20198
:101610004808CB074908CC3D4A08CD3DCD1F222BB9
:10162000FF30CB06FF30CC06FF30CD060130CB07B4
:10163000003003180130CC07003003180130CD070B
:10164000D201D20A4B08F1004C08F2004D08F30019
:101650005408CE004E08F4005208CF004F08F500A1
:1016600097319C2771082000C8007208C9007308D0
:10167000CA000800713086008701403F2000A000AA
:10168000413FA100423FA200433FA3000310220DAF
:10169000230DA4002408FC007C08031D582B0030F7
:1016A000F4000030F3000030F2000030F1000800D8
:1016B000743086008701403FA000413FA100423FB7
:1016C000A200433FA3000310220D230DA400240811
:1016D000FB007B08031D752B0030F4000030F30085
:1016E0000030F2000030F100080071308600870100
:1016F0000030810441310030810441318030810467
:10170000413100308104713086008701FF3081054E
:101710004131FF3081054131FF30810541310030D9
:10172000810574308600870100308104413100302A
:1017300081044131803081044131003081047430B2
:1017400086008701FF3081054131FF30810541313D
:10175000FF3081054131003081050030FA00003052
:10176000F9000030F8000030F7007F30FC02A030B4
:101770007B07A0002008FC022030A0002008FB000E
:101780000130F735F80DF90DFA0D890BC12B7430C6
:1017900086008701403FA000413FA100423FA200D8
:1017A000433FA300713086008701403FA400413FC2
:1017B000A500423FA600433FA70023082702031DC0
:1017C000EB2B22082602031DEB2B21082502031D0B
:1017D000EB2B20082402031C082C743086008701A0
:1017E000403FA000413FA100423FA200433FA30071
:1017F0007130860087012008810241312108813B38
:1018000041312208813B41312308813B7D317714EE
:1018100071308600870181354131810D4131810D63
:101820004131810D7D310130FB02031DC02BFC1FB6
:10183000352C7C08803A9F3E0318272C0030F4009A
:101840000030F3000030F2000030F10008000130F9
:10185000FA36F90CF80CF70C890B282C0130A00093
:101860002008FC0703194E2C272C20307C02031C77
:101870004B2C0030F4000030F3000030F200003058
:10188000F10008000130F735F80DF90DFA0D890B5C
:10189000432C0130FC027C08031D422C7A08F40022
:1018A0007908F3007808F2007708F10008002000BA
:1018B000C7006E304702031C172D0A30F8000030B5
:1018C000F9004708BD00BE013D08F3003E08F400E2
:1018D0006430F1000030F2009631B2268C3172088B
:1018E000FB007108FA009631F7268C317808093E22
:1018F0002000A4000030793DA5000330A600003090
:10190000A700953192258C312000250885002408F8
:101910008400283084079030853D003FAA00013FB5
:10192000AB00023FAC006430F8000030F90047081B
:10193000BF00C0013F08FA004008FB009631F726BF
:101940008C317808123E2000A4000030793DA500BB
:101950000330A6000030A700953192258C3120007D
:101960002508850024088400283084079030853DB0
:10197000003FAD00013FAE00023FAF008831DA20EA
:101980008C3120002A08C4002B08C5002C08C60092
:101990004708BD00BE013D08F3003E08F4000A30D0
:1019A000F1000030F2009631B2268C31720820002E
:1019B000A5007108A4000330A6000030A7009531EF
:1019C00092258C31200025088500240884002830C9
:1019D00084079030853D003FAA00013FAB00023FE5
:1019E000AC004408AD004508AE004608AF008831A1
:1019F000DA208C3120002A08C1002B08C2002C08F4
:101A0000C3000030AA000030AB003F30AC004108FA
:101A1000AD004208AE004308AF008831DA20200054
:101A20002A08BA002B08BB002C08BC0008000B30A9
:101A30004702031C8F2D4708BD00BE013D08F3007F
:101A40003E08F4000A30F1000030F2009631B22670
:101A50008C3172082000A5007108A4000330A60094
:101A60000030A700953192258C3120002508850093
:101A700024088400283084079030853D003FAA0068
:101A8000013FAB00023FAC000A30F8000030F90023
:101A90004708BF00C0013F08FA004008FB0096312C
:101AA000F7268C317808093E2000A4000030793DEB
:101AB000A5000330A6000030A700953192258C3197
:101AC00020002508850024088400283084079030F1
:101AD000853D003FAD00013FAE00023FAF008831C1
:101AE000DA208C3120002A08C4002B08C5002C08FD
:101AF000C6000030AA000030AB003F30AC00440804
:101B0000AD004508AE004608AF008831DA2020005D
:101B10002A08BA002B08BB002C08BC0008000030C3
:101B2000AA000030AB003F30AC004708BD00BE014A
:101B30003D08A4003E08A5000330A6000030A70021
:101B4000953192258C3120002508850024088400D9
:101B5000283084079030853D003FAD00013FAE0046
:101B6000023FAF008831DA2020002A08BA002B0893
:101B7000BB002C08BC0008002000C200C21FE12EE0
:101B8000C209C20A4208803A123E031C652E0A307E
:101B9000F8000030F9004208F300F401F31BF403ED
:101BA0006430F1000030F2009631B2268D317208B7
:101BB000FB007108FA009631F7268D317808093E4E
:101BC0002000A4000030793DA5000330A6000030BD
:101BD000A700953192258D31200025088500240825
:101BE0008400283084079030853D003FAA00013FE3
:101BF000AB00023FAC006430F8000030F90042084E
:101C0000FA00FB01FA1BFB039631F7268D317808A9
:101C1000123E2000A4000030793DA5000330A6004C
:101C20000030A700953192258D31200025088500D0
:101C300024088400283084079030853D003FAD00A3
:101C4000013FAE00023FAF008831DA208D31200025
:101C50002A08BF002B08C0002C08C1004208F3006E
:101C6000F401F31BF4030A30F1000030F200963166
:101C7000B2268D3172082000A5007108A40003303F
:101C8000A6000030A700953192258D31200025084F
:101C9000850024088400283084079030853D003F6B
:101CA000AA00013FAB00023FAC003F08AD00400876
:101CB000AE004108AF008831DA2020002A08BA00BF
:101CC0002B08BB002C08BC0008004208803A753E77
:101CD000031CC42E4208F300F401F31BF4030A3082
:101CE000F1000030F2009631B2268D3172082000EA
:101CF000A5007108A4000330A6000030A7009531AC
:101D000092258D3120002508850024088400283084
:101D100084079030853D003FAA00013FAB00023FA1
:101D2000AC000A30F8000030F9004208FA00FB016C
:101D3000FA1BFB039631F7268D317808093E200007
:101D4000A4000030793DA5000330A6000030A700B4
:101D5000953192258D3120002508850024088400C6
:101D6000283084079030853D003FAD00013FAE0034
:101D7000023FAF008831DA2020002A08BA002B0881
:101D8000BB002C08BC0008004208BD00BE013D0895
:101D9000A4003E08A5000330A6000030A70095313E
:101DA0009225200025088500240884002830840717
:101DB0009030853D003FBA00013FBB00023FBC00B0
:101DC00008004208803A123E031C842F0A30F800B3
:101DD0000030F9004208F300F401F31BF40364300F
:101DE000F1000030F2009631B2268D317208FB000E
:101DF0007108FA009631F7268D317808093E2000E7
:101E0000A4000030793DA5000330A6000030A700F3
:101E1000953192258D312000250885002408840005
:101E20004F3084079030853D003FAA00013FAB0052
:101E3000023FAC006430F8000030F9004208FA00BC
:101E4000FB01FA1BFB039631F7268D317808123E11
:101E50002000A4000030793DA5000330A60000302A
:101E6000A700953192258D31200025088500240892
:101E700084004F3084079030853D003FAD00013F26
:101E8000AE00023FAF008831DA208D3120002A08F1
:101E9000BF002B08C0002C08C1004208F300F40169
:101EA000F31BF4030A30F1000030F2009631B22641
:101EB0008D3172082000A5007108A4000330A6002F
:101EC0000030A700953192258D312000250885002E
:101ED000240884004F3084079030853D003FAA00DD
:101EE000013FAB00023FAC003F08AD004008AE0030
:101EF0004108AF008831DA2020002A08BA002B08F8
:101F0000BB002C08BC0008004208803A753E031C48
:101F1000E32F4208F300F401F31BF4030A30F1004D
:101F20000030F2009631B2268D3172082000A500F3
:101F30007108A4000330A6000030A7009531922557
:101F40008D31200025088500240884004F30840747
:101F50009030853D003FAA00013FAB00023FAC003E
:101F60000A30F8000030F9004208FA00FB01FA1BC1
:101F7000FB039631F7268D317808093E2000A40036
:101F80000030793DA5000330A6000030A700953150
:101F900092258D31200025088500240884004F30CB
:101FA00084079030853D003FAD00013FAE00023F09
:101FB000AF008831DA2020002A08BA002B08BB00C5
:101FC0002C08BC0008004208BD00BE013D08A4006A
:101FD0003E08A5000330A6000030A70095319225E9
:101FE000200025088500240884004F3084079030A5
:101FF000853D003FBA00013FBB00023FBC00080026
:1020000001340034003400340A3400340034003425
:102010006434003400340034E834033400340034D1
:102020001034273400340034A034863401340034B2
:10203000403442340F3400348034963498340034C1
:102040000034E134F53405340034CA349A343B3476
:10205000003480343F34CD34CC343D34D734233451
:102060003C34123483343A34B734D1343834C6343F
:1020700027343734383486343534C034D6343334A6
:10208000CC342B343234703489343034E734DB349C
:102090002E34E5343C341E344234A2340D34003442
:1020A00080343F340034203441340034C834423466
:1020B00000347A34443440341C3446345034C3340D
:1020C0004734243474344934973418344B34BC3492
:1020D000BE344C346B346E344E34033415345034C7
:1020E0007934AD346034F3344934713442346F346C
:1020F0006F3473347434203449346E346934743436
:10210000693461346C3469347A3469346E346734D8
:102110002E342E342E342E342E34003420342034F9
:102120002034203420342034003456346534723462
:1021300020343A34203400345634633420343A3472
:0A21400020340034253466340034E6
:102A0000F10071082200990008009030220098001F
:102A1000053099000800F030210099009A019801D2
:102A20000800640080010131890B122D0034F1008F
:102A300023009E1C182D71089A0008000130210007
:102A40009D00C0309E009F019B019C0108001C302E
:102A500025009300013091009201FC309E05080092
:102A600020009C019F309B009A0191108731FC2728
:102A700008003C3025009A007F3098007F30990094
:102A8000F3309E050800083023009F0080309D0031
:102A900024309E0040309B0003309C0008007908E1
:102AA000F1007A08F200F3018E30FC007C08F4009B
:102AB000F50197319C277108F9007208FA00730834
:102AC000FB0008002D0097019801103099009A0131
:102AD00022309B0022309C009D019E0101309F000E
:102AE0009501960193019401910192018030970024
:102AF0000800F4007408F300F30DF30D21001D0825
:102B00007306833973069D001D140D30F300F30B1B
:102B1000872D21009D149D188B2D1C08F2001B0889
:102B2000F10008002000A801A901241C9B2D260803
:102B3000A8072708A93D0130A635A70D890B9C2DB4
:102B40000130A536A40C890BA12D24082504031DF2
:102B5000952D2908A5002808A40008002000570882
:102B6000560455040319B62D8030D7065808C800FE
:102B70005908C9005A08CA005508CB005608CC00AD
:102B80005708CD008A31442220004808D500490862
:102B9000D6004A08D70008007A08F1007B08F20046
:102BA0007C08F3000030F4000030F5000030F6003F
:102BB000963135269531031808007A08F1007B0814
:102BC000F2007C08F300883100207108FA007208D6
:102BD000FB007308FC0008003830860001308700D5
:102BE000B7308400003085000F302000E900160067
:102BF0001A00E90BF72DA230DB009030DC006608EC
:102C0000DD006708DE006808DF00B730803138205B
:102C10009531B730F2000030F300963110260800ED
:102C2000F501F6017208750784007308763D85008A
:102C30001200031908007608803AF400803074020C
:102C4000031D242E643075020318080072087507EE
:102C500084007308763D850000089531172596316C
:102C60000130F5070030F63D122EF31F4B2E71098F
:102C7000F7007209F8007309F900F70A0319F80A56
:102C80000319F90A00307707F1000030783DF200AF
:102C90008030793DF300F61F612E7409F700750945
:102CA000F8007609F900F70A0319F80A0319F90A76
:102CB00000307707F4000030783DF5008030793D32
:102CC000F6008030F3068030F60676087302031DA6
:102CD000080075087202031D0800740871020800DC
:102CE00074087304720471040319A92EFA01FA0A14
:102CF000F41B862E0130F135F20DF30DF40D890B26
:102D00007B2E0130F9007908FA07782E74087802D2
:102D1000031D942E73087702031D942E7208760209
:102D2000031D942E71087502031C9E2E7108F50276
:102D30007208F63B7308F73B7408F83B0130F43631
:102D4000F30CF20CF10C890B9F2E0130FA02031DDB
:102D5000862E7808F4007708F3007608F2007508EC
:102D6000F1000800F701F41FBC2EF309F409F30A7F
:102D70000319F40AF701F70AF21FC32EF109F20949
:102D8000F10A0319F20A710872040319EA2EF60116
:102D9000F60AF21BD52E0130F135F20D890BCC2E3F
:102DA0000130F5007508F607C92E72087402031D7C
:102DB000DB2E71087302031CE12E7108F302720806
:102DC000F43B0130F236F10C890BE22E0130F602B1
:102DD000031DD52E77080319F22EF309F409F30A1F
:102DE0000319F40A7408F2007308F10008002000C7
:102DF000A101F91F022FF809F909F80A0319F90AC4
:102E0000A101A10AFB1F0D2FFA09FB09FA0A0319F8
:102E1000FB0A0130FC007C08A106A201A30178088E
:102E2000790403193C2FA001A00AF91B212F0130BE
:102E3000F835F90D890B182F0130FC007C08A0072C
:102E4000152F0130A235A30D890B222F79087B02A3
:102E5000031D2C2F78087A02031C332F7808FA02FE
:102E60007908FB3B22140130F936F80C890B342F1A
:102E70000130A002031D212F21080319442FA209AC
:102E8000A309A20A0319A30A2308F9002208F800DB
:102E9000080000302000A3000030A2000030A10094
:102EA0000030A00074087304720471040319932F96
:102EB000A401A40AF41B682F0130F135F20DF30DC3
:102EC000F40D890B5D2F0130F9007908A4075A2F02
:102ED0000130A035A10DA20DA30D890B692F740837
:102EE0007802031D7D2F73087702031D7D2F720862
:102EF0007602031D7D2F71087502031C882F71084F
:102F0000F5027208F63B7308F73B7408F83B20148F
:102F10000130F436F30CF20CF10C890B892F0130DF
:102F2000A402031D682F2308F4002208F3002108DF
:102F3000F2002008F100080074080319A42F730898
:102F400072047104031DB52F0030F1000030F2004F
:102F50000030F30008000130F6007608F407013075
:102F6000F336F20CF10C890BB02FFE307305031908
:102F7000CE2FAB2F0130F6007608F4070130F107B1
:102F8000003003180130F207003003180130F30756
:102F90000130F336F20CF10C890BC92FFF307305A9
:102FA0000319DB2FBA2F0130F4020130F135F20D95
:102FB000F30D890BD62FF21BE12F02307402031898
:102FC000D32F7418E92FFF30F1057F30F205FF3061
:102FD000F3050310F40C7408F600F701F801103043
:102FE000F635F70DF80D890BF02F7608F104770808
:102FF000F2047808F304750803190800F3170800B1
:020000040001F9
:04000E00A4FFFFFE4E
:00000001FF
